S00B0000534F532E7372656324
S11300000C9431000C944E000C944E000C944E0051
S11300100C944E000C9485030C944E000C944E00EA
S11300200C944E000C945C030C944E000C9433031B
S11300300C944E000C944E000C944E000C944E0004
S11300400C944E000C944E000C944E000C944E00F4
S11300500C944E0094029B02A202A902B002B702C1
S1130060BE0211241FBECFE5D8E0DEBFCDBF10E035
S1130070A0E6B0E0E4E7FAE002C005900D92A436F1
S1130080B107D9F720E0A4E6B0E001C01D92A83C76
S1130090B207E1F70E9478000C9438050C94000034
S11300A061E081E00E949601089562E081E00E948F
S11300B09601089564E081E00E949601089568E045
S11300C081E00E949601089560E181E00E9496011A
S11300D0089560E281E00E949601089560E481E061
S11300E00E949601089560E881E00E9496010895B7
S11300F0CF93DF9300D01F92CDB7DEB7789481E021
S113010089838FEF8A838B83CE0101960E94ED0051
S113011040E06FEF81E00E944F010E94470445E0F8
S113012068E873E184E690E00E949A0446E060E7A0
S113013077E189E690E00E949A0447E068E57BE174
S11301408EE690E00E949A0448E060E47FE183E751
S113015090E00E949A0441E068EE73E080E590E04C
S11301600E949A0442E060ED77E085E590E00E9409
S11301709A0443E068EB7BE08AE590E00E949A04ED
S113018044E060EA7FE08FE590E00E949A040E94D8
S1130190D60080E00E94E1000E94C00480E090E06C
S11301A00F900F900F90DF91CF91089581E080938D
S11301B0650080E0089585B7806885BF889580E0F4
S11301C008958093640085B78F7085BF95B780913B
S11301D06400892B85BF80E00895009709F457C017
S11301E0FC012281222319F02F3F59F152C0FC0156
S11301F02081213071F028F0223099F02330C9F0A9
S11302004AC02AB3FC018181809582238ABB80E0A5
S1130210089527B3FC0181818095822387BB80E008
S1130220089524B3FC0181818095822384BB80E0FE
S1130230089521B3FC0181818095822381BB80E0F4
S11302400895FC012081213069F028F0223089F0E2
S11302502330B1F022C02AB3FC018181822B8ABBF6
S113026080E0089527B3FC018181822B87BB80E065
S1130270089524B3FC018181822B84BB80E008951E
S113028021B3FC018181822B81BB80E0089581E050
S1130290089581E0089581E0089581E0089544235C
S11302A019F04F3F09F13CC0813061F028F08230F1
S11302B079F0833099F036C08BB3609568236BBBBB
S11302C080E0089588B36095682368BB80E0089552
S11302D085B36095682365BB80E0089582B360951B
S11302E0682362BB80E00895813059F028F08230A1
S11302F069F0833081F018C08BB3682B6BBB80E04E
S1130300089588B3682B68BB80E0089585B3682B93
S113031065BB80E0089582B3682B62BB80E00895DA
S113032081E0089581E0089581E00895813059F0D5
S113033028F0823069F0833081F014C08BB36827D1
S11303406BBB80E0089588B3682768BB80E008959C
S113035085B3682765BB80E0089582B3682762BBD4
S113036080E0089581E00895CF93DF93EC018881C4
S1130370813009F460C020F0823009F4B8C00FC1A4
S11303808C819D81009721F0909367008093660093
S113039089818130B1F118F08230D1F100C113BEEE
S11303A08B818430C9F028F4813041F0823069F0C7
S11303B0F6C08630C1F08730E9F0F1C0A881B0E022
S11303C0A159BF4F81E08C9329C0A881B0E0A15905
S11303D0BF4F82E08C9322C0A881B0E0A159BF4FE7
S11303E083E08C931BC0A881B0E0A159BF4F84E087
S11303F08C9314C0A881B0E0A159BF4F85E08C93C1
S11304000DC0A881B0E0A159BF4F87E08C9306C00E
S1130410A881B0E0A159BF4F86E08C938A818823DC
S113042039F0813009F0BBC089B7816089BFB7C09A
S113043089B789BFB4C08C819D81009721F09093C6
S113044069008093680089818130B9F118F08230A5
S1130450D9F1A5C01FBC1EBC8B818430C9F028F41F
S1130460813041F0823069F09AC08630C1F0873023
S1130470E9F095C0A881B0E0A159BF4F81E08C9309
S113048029C0A881B0E0A159BF4F82E08C9322C05B
S1130490A881B0E0A159BF4F83E08C931BC0A88111
S11304A0B0E0A159BF4F84E08C9314C0A881B0E0A0
S11304B0A159BF4F85E08C930DC0A881B0E0A1592C
S11304C0BF4F87E08C9306C0A881B0E0A159BF4F0D
S11304D086E08C938A81882339F0813009F05FC0EB
S11304E089B7846089BF5BC089B789BF58C08C81D4
S11304F09D81009721F090936B0080936A0089811D
S1130500882321F0833008F04AC03EC015BC4B81DB
S113051050E0415051094730510508F040C0465D54
S11305205F4FFA010C943205A881B0E0A159BF4F86
S113053081E08C9329C0A881B0E0A159BF4F82E02B
S11305408C9322C0A881B0E0A159BF4F83E08C9363
S11305501BC0A881B0E0A159BF4F84E08C9314C0A4
S1130560A881B0E0A159BF4F85E08C930DC0A8814C
S1130570B0E0A159BF4F86E08C9306C0A881B0E0DB
S1130580A159BF4F87E08C938A81882331F0813051
S113059031F489B7806489BF02C089B789BF81E01B
S11305A0DF91CF910895813001F118F08230D1F1BB
S11305B04EC06F3F710511F008F04BC090916F0071
S11305C0992309F448C09650923038F412BE23B7E8
S11305D090916F00922B93BF32C0609562BF23B796
S11305E090916F00922B93BF2AC090917000992331
S11305F0A1F19650923050F41DBC1CBC2EB53FB5F1
S113060090917000292B3FBD2EBD19C06095709547
S11306107DBD6CBD2EB53FB590917000292B3FBDBB
S11306202EBD0DC06F3F710509F0C8F490917100A3
S11306309923B9F0609564BD25B5922B95BDE82F3B
S1130640F0E0E459FF4F81E0808380E0089581E089
S1130650089581E0089581E0089581E0089581E09E
S1130660089581E008951F920F920FB60F921124FE
S11306702F933F934F935F936F937F938F939F93A6
S1130680AF93BF93EF93FF93E0916600F0916700FF
S1130690309709F00995FF91EF91BF91AF919F9128
S11306A08F917F916F915F914F913F912F910F9017
S11306B00FBE0F901F9018951F920F920FB60F92B6
S11306C011242F933F934F935F936F937F938F9353
S11306D09F93AF93BF93EF93FF93E0916800F091E2
S11306E06900309709F00995FF91EF91BF91AF919F
S11306F09F918F917F916F915F914F913F912F9136
S11307000F900FBE0F901F9018951F920F920FB667
S11307100F9211242F933F934F935F936F937F9383
S11307208F939F93AF93BF93EF93FF93E0916A00EE
S1130730F0916B00309709F00995FF91EF91BF910B
S1130740AF919F918F917F916F915F914F913F9165
S11307502F910F900FBE0F901F901895DF92EF927C
S1130760FF920F931F93CF93DF93CDB7DEB72897F4
S11307700FB6F894DEBF0FBECDBF4091730050E0BA
S1130780CA010197181619060CF067C080E090E0C2
S113079010E0E12CF12C00E078E054C09C012F5FC4
S11307A03F4FDC01AA0FBB1FAA0FBB1FAA0FBB1F21
S11307B0AC58BF4FF901EE0FFF1FEE0FFF1FEE0FF6
S11307C0FF1FEC58FF4F1696AC91E681EA1738F5F7
S11307D0880F991F880F991F880F991F8C589F4F56
S11307E0FC01DE011196D72E01900D92DA94E1F707
S11307F0220F331F220F331F220F331F2C583F4F5A
S1130800F901DC01872F01900D928A95E1F7FE0131
S11308103196D901872F01900D928A95E1F76F5F88
S1130820862F90E0841795070CF4B8CF1F5F812FB3
S113083090E04091730050E09A01215031098217F1
S113084093075CF4481B590B4150510914161506C3
S11308506CF78E2D9F2D602FA1CF28960FB6F8949C
S1130860DEBF0FBECDBFDF91CF911F910F91FF90DF
S1130870EF90DF9008956091C5007091C60080915B
S1130880C7000E94D30281E08093C40008951F939F
S1130890CF93DF9300D000D000D0CDB7DEB78091E6
S11308A060008130E1F580916100813041F018F001
S11308B0823051F00DC019821092C70009C081E046
S11308C089838093C70004C082E089838093C70032
S11308D01A8211E01B8387E08C838BE394E09E8370
S11308E08D83CE0101960E94B4014091620020E8FC
S11308F03EE3429FC001439F900D1124892F8695AA
S113090086958093C5001092C6001092C400109280
S1130910730010937200109260008CE801C08FE89D
S113092026960FB6F894DEBF0FBECDBFDF91CF91F0
S11309301F9108952091600021111EC00097F1F0CD
S113094020917300E22FF0E0EE0FFF1FEE0FFF1F68
S1130950EE0FFF1FEC58FF4F1182108273836283E6
S113096095838483468382E087832F5F209373007B
S11309700E94AE038CE808958EE8089580E90895F6
S1130980BF92CF92DF92EF92FF920F931F93CF9378
S1130990DF938091600081115AC06091C50070910D
S11309A0C6008091C7000E94D302109272000E9478
S11309B0AE0304E710E00F2EFBE7CF2EF0E0DF2EAE
S11309C0F02DEE24E3946894FF24F1F88091C400A0
S11309D08130D1F5509173005523A1F1F801D6016E
S11309E040E08081918101969183808322813381CB
S11309F08217930719F41C92118210824F5F389664
S1130A001896451770F3809173008823D9F0B12CA0
S1130A108B2D90E0FC01EE0FFF1FEE0FFF1FEE0F7A
S1130A20FF1FEC58FF4F2781211107C0EF01E78218
S1130A300480F581E02D0995FF82B39480917300C1
S1130A40B81630F31092C4000E94DB00BFCF8EE8CA
S1130A50DF91CF911F910F91FF90EF90DF90CF9096
S1130A60BF900895EE0FFF1F0590F491E02D0994B7
S1070A70F894FFCF24
S1070A740100010078
S9030000FC
